S02700004F6E2D64656D616E642054726166666963206C6967687420636F6E74726F6C2E7372656372
S11300000C942A000C94AF010C9447000C94470004
S11300100C9447000C9447000C9447000C94470040
S11300200C9447000C9447000C9447000C94470030
S11300300C9447000C9447000C9447000C94470020
S11300400C9447000C9447000C9447000C94470010
S11300500C94470011241FBECFE5D8E0DEBFCDBF0E
S113006010E0A0E6B0E0EAECFAE002C005900D92E0
S1130070A236B107D9F720E0A2E6B0E001C01D9294
S1130080A436B207E1F70E94CB010C9463050C94EB
S1130090000060E081E40E94BF0161E081E40E940D
S11300A0BF0162E081E40E94BF0160E082E40E943B
S11300B0BF0161E082E40E94BF0162E082E40E9429
S11300C0BF0162E084E40E94BB010E94C4027894F0
S11300D085B7816085BF85B7826085BF8BB7806433
S11300E08BBF08951092630029C061E081E40E94EF
S11300F0C30161E082E40E94C30186E891E00E94AA
S1130100C60261E081E40E94C70161E082E40E94CA
S1130110C7018EEB90E00E94C60261E081E40E9478
S1130120C30161E082E40E94C30186E891E00E9479
S1130130C602809163008F5F8093630080916300A7
S1130140853098F2089580916000813039F0909163
S11301506200992319F0913009F0CBC0813019F075
S113016081E08093620060E082E40E94C70161E064
S113017082E40E94C70180916200813059F120F02D
S1130180823009F488C0AEC060E081E40E94C301FB
S113019061E081E40E94C70162E081E40E94C7013A
S11301A0109263000DC084E490E00E94C602809126
S11301B06000813049F4809163008F5F8093630015
S11301C080916300823378F381E08093620010921F
S11301D061000895809160008130A9F080916100F0
S11301E0823031F062E082E40E94C3010E94720016
S11301F081E08093610082E08093620062E081E4A8
S11302000E94C3012CC01092630025C061E081E408
S11302100E94C3018CE791E00E94C60261E081E480
S11302200E94C70184EB90E00E94C60261E081E471
S11302300E94C3018CE791E00E94C6028091600095
S1130240813021F081E08093610009C080916300D6
S11302508F5F80936300809163008530B8F261E022
S113026081E40E94C70161E082E40E94C701809199
S11302706100811107C082E08093620081E0809375
S113028061000895823009F069C01092620081E033
S113029080936100089560E081E40E94C70161E0F9
S11302A081E40E94C70162E081E40E94C3011092CC
S11302B063000DC084E490E00E94C6028091600057
S11302C0813049F4809163008F5F80936300809153
S11302D06300823378F382E08093610081E080934D
S11302E06200089582E08093620081E0809361005F
S11302F0089560E082E40E94C30161E082E40E9408
S1130300C70162E082E40E94C70160E081E40E94C8
S1130310C70161E081E40E94C70162E081E40E94B8
S1130320C30188E893E10E94C60262E081E40E946E
S1130330C7010E94720061E081E40E94C70161E08C
S113034082E40E94C70162E082E40E94C30181E06A
S113035080936000109262008093610008951F9260
S11303600F920FB60F921124109260000F900FBEDF
S11303700F901F90189540E00E94D001089541E02D
S11303800E94D001089541E00E944A02089540E08D
S11303900E944A0208950E9449000E94A300FDCFD2
S11303A0823431F118F4813439F008958334E1F161
S11303B0843409F454C0089541110CC02AB381E077
S11303C090E002C0880F991F6A95E2F78095822316
S11303D08ABB0895413009F05CC02AB381E090E003
S11303E002C0880F991F6A95E2F7822B8ABB089591
S11303F041110CC027B381E090E002C0880F991F1F
S11304006A95E2F78095822387BB0895413009F00D
S113041040C027B381E090E002C0880F991F6A951D
S1130420E2F7822B87BB089541110CC024B381E00D
S113043090E002C0880F991F6A95E2F780958223A5
S113044084BB0895413029F524B381E090E002C0D3
S1130450880F991F6A95E2F7822B84BB0895411196
S11304600CC021B381E090E002C0880F991F6A9507
S1130470E2F78095822381BB0895413051F421B382
S113048081E090E002C0880F991F6A95E2F7822B01
S113049081BB0895823431F118F4813439F0089520
S11304A08334E1F1843409F454C0089541110CC03B
S11304B02BB381E090E002C0880F991F6A95E2F7A0
S11304C0809582238BBB0895413009F05CC02BB327
S11304D081E090E002C0880F991F6A95E2F7822BB1
S11304E08BBB089541110CC028B381E090E002C099
S11304F0880F991F6A95E2F78095822388BB089537
S1130500413009F040C028B381E090E002C0880F78
S1130510991F6A95E2F7822B88BB089541110CC09C
S113052025B381E090E002C0880F991F6A95E2F735
S11305308095822385BB0895413029F525B381E058
S113054090E002C0880F991F6A95E2F7822B85BB61
S1130550089541110CC022B381E090E002C0880FDD
S1130560991F6A95E2F78095822382BB08954130F2
S113057051F422B381E090E002C0880F991F6A957C
S1130580E2F7822B82BB089513BE08958F929F9247
S1130590AF92BF92CF92DF92EF92FF92CF93DF930D
S11305A0EC01BC0180E090E00E9470046B017C01CE
S11305B02FE632E143E852E40E94CA0388239CF404
S11305C0A70196016FE672E183E892E40E94460374
S11305D02FE632E143E85EE30E94CF030E94410428
S11305E0C1E0D0E035C0C134D10579F12FE632E164
S11305F043E852E4C701B6010E94CF030E94B3034B
S11306000E9441044B015C01EB012FE632E143E817
S11306105EE3C701B6010E94CF036B017C01B40104
S113062080E090E00E9470049B01AC01C701B60118
S11306300E94CF039B01AC0160E070E080E893E48A
S11306400E9446030E94410403C060E0C1E0D0E080
S113065062BF83B7846083BF20E030E008C008B67F
S113066000FEFDCF88B7816088BF2F5F3F4F2C17F6
S11306703D07A8F313BEDF91CF91FF90EF90DF9079
S1130680CF90BF90AF909F908F9008955058BB2704
S1130690AA270E945E030C9411050E94030538F0FA
S11306A00E940A0520F039F49F3F19F426F40C94B3
S11306B000050EF4E095E7FB0C94D104E92F0E94A9
S11306C0220558F3BA17620773078407950720F0C9
S11306D079F4A6F50C945C050EF4E0950B2EBA2F74
S11306E0A02D0B01B90190010C01CA01A001112434
S11306F0FF27591B99F0593F50F4503E68F11A16E0
S1130700F040A22F232F342F4427585FF3CF469570
S113071037952795A795F0405395C9F77EF41F1692
S1130720BA0B620B730B840BBAF09150A1F0FF0F5C
S1130730BB1F661F771F881FC2F70EC0BA0F621F48
S1130740731F841F48F4879577956795B795F79538
S11307509E3F08F0B0CF9395880F08F09927EE0FCD
S11307609795879508950E94440590F09F3748F423
S1130770911116F40C945D0560E070E080E89FE34D
S1130780089526F01B16611D711D811D0C94D7045C
S11307900C94F2040E94AD0408F481E008950E94D0
S11307A0E3030C9411050E940A0558F00E94030506
S11307B040F029F45F3F29F00C94D10451110C94BA
S11307C05D050C9400050E94220568F39923B1F39A
S11307D0552391F3951B550BBB27AA276217730763
S11307E0840738F09F5F5F4F220F331F441FAA1FF7
S11307F0A9F335D00E2E3AF0E0E832D091505040B3
S1130800E695001CCAF72BD0FE2F29D0660F771F60
S1130810881FBB1F261737074807AB07B0E809F046
S1130820BB0B802DBF01FF2793585F4F3AF09E3FCB
S1130830510578F00C94D1040C945D055F3FE4F30A
S1130840983ED4F3869577956795B795F7959F5F0E
S1130850C9F7880F911D9695879597F90895E1E05A
S1130860660F771F881FBB1F621773078407BA07B9
S113087020F0621B730B840BBA0BEE1F88F7E09514
S113088008950E942A0588F09F5798F0B92F992758
S1130890B751B0F0E1F0660F771F881F991F1AF067
S11308A0BA95C9F714C0B13091F00E945C05B1E06B
S11308B008950C945C05672F782F8827B85F39F06A
S11308C0B93FCCF3869577956795B395D9F73EF400
S11308D090958095709561957F4F8F4F9F4F0895A8
S11308E0E89409C097FB3EF49095809570956195C6
S11308F07F4F8F4F9F4F9923A9F0F92F96E9BB277C
S11309009395F695879577956795B795F111F8CFF7
S1130910FAF4BB0F11F460FF1BC06F5F7F4F8F4F62
S11309209F4F16C0882311F096E911C0772321F058
S11309309EE8872F762F05C0662371F096E8862FF0
S113094070E060E02AF09A95660F771F881FDAF747
S1130950880F9695879597F90895990F0008550F74
S1130960AA0BE0E8FEEF16161706E807F907C0F031
S113097012161306E407F50798F0621B730B840B39
S1130980950B39F40A2661F0232B242B252B21F413
S113099008950A2609F4A140A6958FEF811D811DB3
S11309A0089597F99F6780E870E060E008958823D0
S11309B071F4772321F09850872B762F07C0662394
S11309C011F499270DC09051862B70E060E02AF055
S11309D09A95660F771F881FDAF7880F9695879583
S11309E097F908959F3F31F0915020F487957795BA
S11309F06795B795880F911D9695879597F90895F2
S1130A009FEF80EC089500240A9416161706180622
S1130A100906089500240A941216130614060506FE
S1130A200895092E0394000C11F4882352F0BB0F8F
S1130A3040F4BF2B11F460FF04C06F5F7F4F8F4FF2
S1130A409F4F089557FD9058440F551F59F05F3F2D
S1130A5071F04795880F97FB991F61F09F3F79F0DC
S1130A6087950895121613061406551FF2CF46955E
S1130A70F1DF08C0161617061806991FF1CF8695E0
S1130A8071056105089408950E942A05A0F0BEE747
S1130A90B91788F4BB279F3860F41616B11D672F69
S1130AA0782F8827985FF7CF869577956795B11D3E
S1130AB093959639C8F30895E894BB27662777275A
S10D0AC0CB0197F90895F894FFCFD5
S1050ACA010124
S9030000FC
